{
  "_format": "hh-sol-artifact-1",
  "contractName": "Create",
  "sourceName": "contracts/VotingContract.sol",
  "abi": [
    {
      "inputs": [],
      "stateMutability": "nonpayable",
      "type": "constructor"
    },
    {
      "anonymous": false,
      "inputs": [
        {
          "indexed": true,
          "internalType": "uint256",
          "name": "candidateId",
          "type": "uint256"
        },
        {
          "indexed": false,
          "internalType": "string",
          "name": "age",
          "type": "string"
        },
        {
          "indexed": false,
          "internalType": "string",
          "name": "name",
          "type": "string"
        },
        {
          "indexed": false,
          "internalType": "string",
          "name": "image",
          "type": "string"
        },
        {
          "indexed": false,
          "internalType": "uint256",
          "name": "voteCount",
          "type": "uint256"
        },
        {
          "indexed": false,
          "internalType": "address",
          "name": "_address",
          "type": "address"
        },
        {
          "indexed": false,
          "internalType": "string",
          "name": "ipfs",
          "type": "string"
        }
      ],
      "name": "CandidateCreate",
      "type": "event"
    },
    {
      "anonymous": false,
      "inputs": [
        {
          "indexed": true,
          "internalType": "uint256",
          "name": "voter_voterId",
          "type": "uint256"
        },
        {
          "indexed": false,
          "internalType": "string",
          "name": "voter_name",
          "type": "string"
        },
        {
          "indexed": false,
          "internalType": "string",
          "name": "voter_image",
          "type": "string"
        },
        {
          "indexed": false,
          "internalType": "address",
          "name": "voter_address",
          "type": "address"
        },
        {
          "indexed": false,
          "internalType": "uint256",
          "name": "voter_allowed",
          "type": "uint256"
        },
        {
          "indexed": false,
          "internalType": "bool",
          "name": "voter_voted",
          "type": "bool"
        },
        {
          "indexed": false,
          "internalType": "uint256",
          "name": "voter_vote",
          "type": "uint256"
        },
        {
          "indexed": false,
          "internalType": "string",
          "name": "voter_ipfs",
          "type": "string"
        }
      ],
      "name": "VoterCreated",
      "type": "event"
    },
    {
      "inputs": [],
      "name": "_candidateId",
      "outputs": [
        {
          "internalType": "uint256",
          "name": "",
          "type": "uint256"
        }
      ],
      "stateMutability": "view",
      "type": "function"
    },
    {
      "inputs": [],
      "name": "_voterId",
      "outputs": [
        {
          "internalType": "uint256",
          "name": "",
          "type": "uint256"
        }
      ],
      "stateMutability": "view",
      "type": "function"
    },
    {
      "inputs": [
        {
          "internalType": "uint256",
          "name": "",
          "type": "uint256"
        }
      ],
      "name": "candidateAddress",
      "outputs": [
        {
          "internalType": "address",
          "name": "",
          "type": "address"
        }
      ],
      "stateMutability": "view",
      "type": "function"
    },
    {
      "inputs": [
        {
          "internalType": "address",
          "name": "",
          "type": "address"
        }
      ],
      "name": "candidates",
      "outputs": [
        {
          "internalType": "uint256",
          "name": "candidateId",
          "type": "uint256"
        },
        {
          "internalType": "string",
          "name": "age",
          "type": "string"
        },
        {
          "internalType": "string",
          "name": "name",
          "type": "string"
        },
        {
          "internalType": "string",
          "name": "image",
          "type": "string"
        },
        {
          "internalType": "uint256",
          "name": "voteCount",
          "type": "uint256"
        },
        {
          "internalType": "address",
          "name": "_address",
          "type": "address"
        },
        {
          "internalType": "string",
          "name": "ipfs",
          "type": "string"
        }
      ],
      "stateMutability": "view",
      "type": "function"
    },
    {
      "inputs": [],
      "name": "getCandidate",
      "outputs": [
        {
          "internalType": "address[]",
          "name": "",
          "type": "address[]"
        }
      ],
      "stateMutability": "view",
      "type": "function"
    },
    {
      "inputs": [
        {
          "internalType": "address",
          "name": "_address",
          "type": "address"
        }
      ],
      "name": "getCandidateData",
      "outputs": [
        {
          "internalType": "string",
          "name": "",
          "type": "string"
        },
        {
          "internalType": "string",
          "name": "",
          "type": "string"
        },
        {
          "internalType": "uint256",
          "name": "",
          "type": "uint256"
        },
        {
          "internalType": "string",
          "name": "",
          "type": "string"
        },
        {
          "internalType": "uint256",
          "name": "",
          "type": "uint256"
        },
        {
          "internalType": "string",
          "name": "",
          "type": "string"
        },
        {
          "internalType": "address",
          "name": "",
          "type": "address"
        }
      ],
      "stateMutability": "view",
      "type": "function"
    },
    {
      "inputs": [],
      "name": "getCandidateLength",
      "outputs": [
        {
          "internalType": "uint256",
          "name": "",
          "type": "uint256"
        }
      ],
      "stateMutability": "view",
      "type": "function"
    },
    {
      "inputs": [],
      "name": "getVotedVotersList",
      "outputs": [
        {
          "internalType": "address[]",
          "name": "",
          "type": "address[]"
        }
      ],
      "stateMutability": "view",
      "type": "function"
    },
    {
      "inputs": [
        {
          "internalType": "address",
          "name": "_address",
          "type": "address"
        }
      ],
      "name": "getVoterData",
      "outputs": [
        {
          "internalType": "uint256",
          "name": "",
          "type": "uint256"
        },
        {
          "internalType": "string",
          "name": "",
          "type": "string"
        },
        {
          "internalType": "string",
          "name": "",
          "type": "string"
        },
        {
          "internalType": "address",
          "name": "",
          "type": "address"
        },
        {
          "internalType": "string",
          "name": "",
          "type": "string"
        },
        {
          "internalType": "uint256",
          "name": "",
          "type": "uint256"
        },
        {
          "internalType": "bool",
          "name": "",
          "type": "bool"
        }
      ],
      "stateMutability": "view",
      "type": "function"
    },
    {
      "inputs": [],
      "name": "getVoterLength",
      "outputs": [
        {
          "internalType": "uint256",
          "name": "",
          "type": "uint256"
        }
      ],
      "stateMutability": "view",
      "type": "function"
    },
    {
      "inputs": [],
      "name": "getVoterList",
      "outputs": [
        {
          "internalType": "address[]",
          "name": "",
          "type": "address[]"
        }
      ],
      "stateMutability": "view",
      "type": "function"
    },
    {
      "inputs": [
        {
          "internalType": "address",
          "name": "_address",
          "type": "address"
        },
        {
          "internalType": "string",
          "name": "_age",
          "type": "string"
        },
        {
          "internalType": "string",
          "name": "_name",
          "type": "string"
        },
        {
          "internalType": "string",
          "name": "_image",
          "type": "string"
        },
        {
          "internalType": "string",
          "name": "_ipfs",
          "type": "string"
        }
      ],
      "name": "setCandidate",
      "outputs": [],
      "stateMutability": "nonpayable",
      "type": "function"
    },
    {
      "inputs": [
        {
          "internalType": "address",
          "name": "_candidateAddress",
          "type": "address"
        },
        {
          "internalType": "uint256",
          "name": "_candidateVoteId",
          "type": "uint256"
        }
      ],
      "name": "vote",
      "outputs": [],
      "stateMutability": "nonpayable",
      "type": "function"
    },
    {
      "inputs": [
        {
          "internalType": "uint256",
          "name": "",
          "type": "uint256"
        }
      ],
      "name": "votedVoters",
      "outputs": [
        {
          "internalType": "address",
          "name": "",
          "type": "address"
        }
      ],
      "stateMutability": "view",
      "type": "function"
    },
    {
      "inputs": [
        {
          "internalType": "address",
          "name": "_address",
          "type": "address"
        },
        {
          "internalType": "string",
          "name": "_name",
          "type": "string"
        },
        {
          "internalType": "string",
          "name": "_image",
          "type": "string"
        },
        {
          "internalType": "string",
          "name": "_ipfs",
          "type": "string"
        }
      ],
      "name": "voterRight",
      "outputs": [],
      "stateMutability": "nonpayable",
      "type": "function"
    },
    {
      "inputs": [
        {
          "internalType": "address",
          "name": "",
          "type": "address"
        }
      ],
      "name": "voters",
      "outputs": [
        {
          "internalType": "uint256",
          "name": "voter_voterId",
          "type": "uint256"
        },
        {
          "internalType": "string",
          "name": "voter_name",
          "type": "string"
        },
        {
          "internalType": "string",
          "name": "voter_image",
          "type": "string"
        },
        {
          "internalType": "address",
          "name": "voter_address",
          "type": "address"
        },
        {
          "internalType": "uint256",
          "name": "voter_allowed",
          "type": "uint256"
        },
        {
          "internalType": "bool",
          "name": "voter_voted",
          "type": "bool"
        },
        {
          "internalType": "uint256",
          "name": "voter_vote",
          "type": "uint256"
        },
        {
          "internalType": "string",
          "name": "voter_ipfs",
          "type": "string"
        }
      ],
      "stateMutability": "view",
      "type": "function"
    },
    {
      "inputs": [
        {
          "internalType": "uint256",
          "name": "",
          "type": "uint256"
        }
      ],
      "name": "votersAddress",
      "outputs": [
        {
          "internalType": "address",
          "name": "",
          "type": "address"
        }
      ],
      "stateMutability": "view",
      "type": "function"
    },
    {
      "inputs": [],
      "name": "votingOrganizer",
      "outputs": [
        {
          "internalType": "address",
          "name": "",
          "type": "address"
        }
      ],
      "stateMutability": "view",
      "type": "function"
    }
  ],
  "bytecode": "0x608060405234801561001057600080fd5b5033600260006101000a81548173ffffffffffffffffffffffffffffffffffffffff021916908373ffffffffffffffffffffffffffffffffffffffff16021790555061293a806100616000396000f3fe608060405234801561001057600080fd5b50600436106101165760003560e01c80637831ffb3116100a2578063a738896711610071578063a738896714610334578063b28d92ae14610352578063b9be315214610370578063c91ec7121461038e578063f7522a83146103aa57610116565b80637831ffb3146102615780638ab66a90146102915780638fb4cd80146102c7578063a3ec138d146102fd57610116565b80633a88251a116100e95780633a88251a146101a957806343242daa146101d95780635cc48aa7146102095780635f74bbde1461022757806370218b851461024357610116565b80630361419e1461011b57806305ad45a41461013757806313182dce146101555780632a466ac714610173575b600080fd5b61013560048036038101906101309190611b89565b6103c8565b005b61013f61064c565b60405161014c9190611c5d565b60405180910390f35b61015d610659565b60405161016a9190611d36565b60405180910390f35b61018d60048036038101906101889190611d58565b6106e7565b6040516101a09796959493929190611e13565b60405180910390f35b6101c360048036038101906101be9190611eca565b610b2e565b6040516101d09190611ef7565b60405180910390f35b6101f360048036038101906101ee9190611eca565b610b6d565b6040516102009190611ef7565b60405180910390f35b610211610bac565b60405161021e9190611ef7565b60405180910390f35b610241600480360381019061023c9190611f12565b610bd2565b005b61024b610d99565b6040516102589190611d36565b60405180910390f35b61027b60048036038101906102769190611eca565b610e27565b6040516102889190611ef7565b60405180910390f35b6102ab60048036038101906102a69190611d58565b610e66565b6040516102be9796959493929190611f52565b60405180910390f35b6102e160048036038101906102dc9190611d58565b6110e8565b6040516102f49796959493929190611ff8565b60405180910390f35b61031760048036038101906103129190611d58565b6114b0565b60405161032b98979695949392919061207c565b60405180910390f35b61033c6116bd565b6040516103499190611c5d565b60405180910390f35b61035a6116c3565b6040516103679190611d36565b60405180910390f35b610378611751565b6040516103859190611c5d565b60405180910390f35b6103a860048036038101906103a3919061210f565b611757565b005b6103b26119c4565b6040516103bf9190611c5d565b60405180910390f35b3373ffffffffffffffffffffffffffffffffffffffff16600260009054906101000a900473ffffffffffffffffffffffffffffffffffffffff1673ffffffffffffffffffffffffffffffffffffffff1614610458576040517f08c379a000000000000000000000000000000000000000000000000000000000815260040161044f9061226c565b60405180910390fd5b60008081548092919061046a906122bb565b91905055506000805490506000600760008773ffffffffffffffffffffffffffffffffffffffff1673ffffffffffffffffffffffffffffffffffffffff168152602001908152602001600020905060008160040154146104c957600080fd5b60018160040181905550848160010190816104e4919061250f565b50838160020190816104f6919061250f565b50858160030160006101000a81548173ffffffffffffffffffffffffffffffffffffffff021916908373ffffffffffffffffffffffffffffffffffffffff1602179055508181600001819055506103e8816006018190555060008160050160006101000a81548160ff0219169083151502179055508281600701908161057c919061250f565b506006869080600181540180825580915050600190039060005260206000200160009091909190916101000a81548173ffffffffffffffffffffffffffffffffffffffff021916908373ffffffffffffffffffffffffffffffffffffffff16021790555080600001547ff5f39971dd62d9929e3a9feaa6bb77fe7c7da0001babff8a65a7e51ad0201c1986868985600401548660050160009054906101000a900460ff1687600601548860070160405161063c9796959493929190612665565b60405180910390a2505050505050565b6000600680549050905090565b606060058054806020026020016040519081016040528092919081815260200182805480156106dd57602002820191906000526020600020905b8160009054906101000a900473ffffffffffffffffffffffffffffffffffffffff1673ffffffffffffffffffffffffffffffffffffffff1681526020019060010190808311610693575b5050505050905090565b60608060006060600060606000600460008973ffffffffffffffffffffffffffffffffffffffff1673ffffffffffffffffffffffffffffffffffffffff168152602001908152602001600020600101600460008a73ffffffffffffffffffffffffffffffffffffffff1673ffffffffffffffffffffffffffffffffffffffff168152602001908152602001600020600201600460008b73ffffffffffffffffffffffffffffffffffffffff1673ffffffffffffffffffffffffffffffffffffffff16815260200190815260200160002060000154600460008c73ffffffffffffffffffffffffffffffffffffffff1673ffffffffffffffffffffffffffffffffffffffff168152602001908152602001600020600301600460008d73ffffffffffffffffffffffffffffffffffffffff1673ffffffffffffffffffffffffffffffffffffffff16815260200190815260200160002060040154600460008e73ffffffffffffffffffffffffffffffffffffffff1673ffffffffffffffffffffffffffffffffffffffff168152602001908152602001600020600601600460008f73ffffffffffffffffffffffffffffffffffffffff1673ffffffffffffffffffffffffffffffffffffffff16815260200190815260200160002060050160009054906101000a900473ffffffffffffffffffffffffffffffffffffffff168680546108f190612332565b80601f016020809104026020016040519081016040528092919081815260200182805461091d90612332565b801561096a5780601f1061093f5761010080835404028352916020019161096a565b820191906000526020600020905b81548152906001019060200180831161094d57829003601f168201915b5050505050965085805461097d90612332565b80601f01602080910402602001604051908101604052809291908181526020018280546109a990612332565b80156109f65780601f106109cb576101008083540402835291602001916109f6565b820191906000526020600020905b8154815290600101906020018083116109d957829003601f168201915b50505050509550838054610a0990612332565b80601f0160208091040260200160405190810160405280929190818152602001828054610a3590612332565b8015610a825780601f10610a5757610100808354040283529160200191610a82565b820191906000526020600020905b815481529060010190602001808311610a6557829003601f168201915b50505050509350818054610a9590612332565b80601f0160208091040260200160405190810160405280929190818152602001828054610ac190612332565b8015610b0e5780601f10610ae357610100808354040283529160200191610b0e565b820191906000526020600020905b815481529060010190602001808311610af157829003601f168201915b505050505091509650965096509650965096509650919395979092949650565b60038181548110610b3e57600080fd5b906000526020600020016000915054906101000a900473ffffffffffffffffffffffffffffffffffffffff1681565b60068181548110610b7d57600080fd5b906000526020600020016000915054906101000a900473ffffffffffffffffffffffffffffffffffffffff1681565b600260009054906101000a900473ffffffffffffffffffffffffffffffffffffffff1681565b6000600760003373ffffffffffffffffffffffffffffffffffffffff1673ffffffffffffffffffffffffffffffffffffffff16815260200190815260200160002090508060050160009054906101000a900460ff1615610c67576040517f08c379a0000000000000000000000000000000000000000000000000000000008152600401610c5e90612735565b60405180910390fd5b6000816004015403610cae576040517f08c379a0000000000000000000000000000000000000000000000000000000008152600401610ca5906127a1565b60405180910390fd5b60018160050160006101000a81548160ff0219169083151502179055508181600601819055506005339080600181540180825580915050600190039060005260206000200160009091909190916101000a81548173ffffffffffffffffffffffffffffffffffffffff021916908373ffffffffffffffffffffffffffffffffffffffff1602179055508060040154600460008573ffffffffffffffffffffffffffffffffffffffff1673ffffffffffffffffffffffffffffffffffffffff1681526020019081526020016000206004016000828254610d8d91906127c1565b92505081905550505050565b60606003805480602002602001604051908101604052809291908181526020018280548015610e1d57602002820191906000526020600020905b8160009054906101000a900473ffffffffffffffffffffffffffffffffffffffff1673ffffffffffffffffffffffffffffffffffffffff1681526020019060010190808311610dd3575b5050505050905090565b60058181548110610e3757600080fd5b906000526020600020016000915054906101000a900473ffffffffffffffffffffffffffffffffffffffff1681565b6004602052806000526040600020600091509050806000015490806001018054610e8f90612332565b80601f0160208091040260200160405190810160405280929190818152602001828054610ebb90612332565b8015610f085780601f10610edd57610100808354040283529160200191610f08565b820191906000526020600020905b815481529060010190602001808311610eeb57829003601f168201915b505050505090806002018054610f1d90612332565b80601f0160208091040260200160405190810160405280929190818152602001828054610f4990612332565b8015610f965780601f10610f6b57610100808354040283529160200191610f96565b820191906000526020600020905b815481529060010190602001808311610f7957829003601f168201915b505050505090806003018054610fab90612332565b80601f0160208091040260200160405190810160405280929190818152602001828054610fd790612332565b80156110245780601f10610ff957610100808354040283529160200191611024565b820191906000526020600020905b81548152906001019060200180831161100757829003601f168201915b5050505050908060040154908060050160009054906101000a900473ffffffffffffffffffffffffffffffffffffffff169080600601805461106590612332565b80601f016020809104026020016040519081016040528092919081815260200182805461109190612332565b80156110de5780601f106110b3576101008083540402835291602001916110de565b820191906000526020600020905b8154815290600101906020018083116110c157829003601f168201915b5050505050905087565b600060608060006060600080600760008973ffffffffffffffffffffffffffffffffffffffff1673ffffffffffffffffffffffffffffffffffffffff16815260200190815260200160002060000154600760008a73ffffffffffffffffffffffffffffffffffffffff1673ffffffffffffffffffffffffffffffffffffffff168152602001908152602001600020600101600760008b73ffffffffffffffffffffffffffffffffffffffff1673ffffffffffffffffffffffffffffffffffffffff168152602001908152602001600020600201600760008c73ffffffffffffffffffffffffffffffffffffffff1673ffffffffffffffffffffffffffffffffffffffff16815260200190815260200160002060030160009054906101000a900473ffffffffffffffffffffffffffffffffffffffff16600760008d73ffffffffffffffffffffffffffffffffffffffff1673ffffffffffffffffffffffffffffffffffffffff168152602001908152602001600020600701600760008e73ffffffffffffffffffffffffffffffffffffffff1673ffffffffffffffffffffffffffffffffffffffff16815260200190815260200160002060040154600760008f73ffffffffffffffffffffffffffffffffffffffff1673ffffffffffffffffffffffffffffffffffffffff16815260200190815260200160002060050160009054906101000a900460ff168580546112ff90612332565b80601f016020809104026020016040519081016040528092919081815260200182805461132b90612332565b80156113785780601f1061134d57610100808354040283529160200191611378565b820191906000526020600020905b81548152906001019060200180831161135b57829003601f168201915b5050505050955084805461138b90612332565b80601f01602080910402602001604051908101604052809291908181526020018280546113b790612332565b80156114045780601f106113d957610100808354040283529160200191611404565b820191906000526020600020905b8154815290600101906020018083116113e757829003601f168201915b5050505050945082805461141790612332565b80601f016020809104026020016040519081016040528092919081815260200182805461144390612332565b80156114905780601f1061146557610100808354040283529160200191611490565b820191906000526020600020905b81548152906001019060200180831161147357829003601f168201915b505050505092509650965096509650965096509650919395979092949650565b60076020528060005260406000206000915090508060000154908060010180546114d990612332565b80601f016020809104026020016040519081016040528092919081815260200182805461150590612332565b80156115525780601f1061152757610100808354040283529160200191611552565b820191906000526020600020905b81548152906001019060200180831161153557829003601f168201915b50505050509080600201805461156790612332565b80601f016020809104026020016040519081016040528092919081815260200182805461159390612332565b80156115e05780601f106115b5576101008083540402835291602001916115e0565b820191906000526020600020905b8154815290600101906020018083116115c357829003601f168201915b5050505050908060030160009054906101000a900473ffffffffffffffffffffffffffffffffffffffff16908060040154908060050160009054906101000a900460ff169080600601549080600701805461163a90612332565b80601f016020809104026020016040519081016040528092919081815260200182805461166690612332565b80156116b35780601f10611688576101008083540402835291602001916116b3565b820191906000526020600020905b81548152906001019060200180831161169657829003601f168201915b5050505050905088565b60015481565b6060600680548060200260200160405190810160405280929190818152602001828054801561174757602002820191906000526020600020905b8160009054906101000a900473ffffffffffffffffffffffffffffffffffffffff1673ffffffffffffffffffffffffffffffffffffffff16815260200190600101908083116116fd575b5050505050905090565b60005481565b3373ffffffffffffffffffffffffffffffffffffffff16600260009054906101000a900473ffffffffffffffffffffffffffffffffffffffff1673ffffffffffffffffffffffffffffffffffffffff16146117e7576040517f08c379a00000000000000000000000000000000000000000000000000000000081526004016117de90612867565b60405180910390fd5b600160008154809291906117fa906122bb565b9190505550600060015490506000600460008873ffffffffffffffffffffffffffffffffffffffff1673ffffffffffffffffffffffffffffffffffffffff16815260200190815260200160002090508581600101908161185a919061250f565b508481600201908161186c919061250f565b5081816000018190555083816003019081611887919061250f565b5060008160040181905550868160050160006101000a81548173ffffffffffffffffffffffffffffffffffffffff021916908373ffffffffffffffffffffffffffffffffffffffff160217905550828160060190816118e6919061250f565b506003879080600181540180825580915050600190039060005260206000200160009091909190916101000a81548173ffffffffffffffffffffffffffffffffffffffff021916908373ffffffffffffffffffffffffffffffffffffffff16021790555080600001547fd297f12b256bb8485a6013fb5e302017018123e99a0ebb20756c09e1707b4b9087878785600401548660050160009054906101000a900473ffffffffffffffffffffffffffffffffffffffff16876006016040516119b396959493929190612887565b60405180910390a250505050505050565b6000600380549050905090565b6000604051905090565b600080fd5b600080fd5b600073ffffffffffffffffffffffffffffffffffffffff82169050919050565b6000611a10826119e5565b9050919050565b611a2081611a05565b8114611a2b57600080fd5b50565b600081359050611a3d81611a17565b92915050565b600080fd5b600080fd5b6000601f19601f8301169050919050565b7f4e487b7100000000000000000000000000000000000000000000000000000000600052604160045260246000fd5b611a9682611a4d565b810181811067ffffffffffffffff82111715611ab557611ab4611a5e565b5b80604052505050565b6000611ac86119d1565b9050611ad48282611a8d565b919050565b600067ffffffffffffffff821115611af457611af3611a5e565b5b611afd82611a4d565b9050602081019050919050565b82818337600083830152505050565b6000611b2c611b2784611ad9565b611abe565b905082815260208101848484011115611b4857611b47611a48565b5b611b53848285611b0a565b509392505050565b600082601f830112611b7057611b6f611a43565b5b8135611b80848260208601611b19565b91505092915050565b60008060008060808587031215611ba357611ba26119db565b5b6000611bb187828801611a2e565b945050602085013567ffffffffffffffff811115611bd257611bd16119e0565b5b611bde87828801611b5b565b935050604085013567ffffffffffffffff811115611bff57611bfe6119e0565b5b611c0b87828801611b5b565b925050606085013567ffffffffffffffff811115611c2c57611c2b6119e0565b5b611c3887828801611b5b565b91505092959194509250565b6000819050919050565b611c5781611c44565b82525050565b6000602082019050611c726000830184611c4e565b92915050565b600081519050919050565b600082825260208201905092915050565b6000819050602082019050919050565b611cad81611a05565b82525050565b6000611cbf8383611ca4565b60208301905092915050565b6000602082019050919050565b6000611ce382611c78565b611ced8185611c83565b9350611cf883611c94565b8060005b83811015611d29578151611d108882611cb3565b9750611d1b83611ccb565b925050600181019050611cfc565b5085935050505092915050565b60006020820190508181036000830152611d508184611cd8565b905092915050565b600060208284031215611d6e57611d6d6119db565b5b6000611d7c84828501611a2e565b91505092915050565b600081519050919050565b600082825260208201905092915050565b60005b83811015611dbf578082015181840152602081019050611da4565b60008484015250505050565b6000611dd682611d85565b611de08185611d90565b9350611df0818560208601611da1565b611df981611a4d565b840191505092915050565b611e0d81611a05565b82525050565b600060e0820190508181036000830152611e2d818a611dcb565b90508181036020830152611e418189611dcb565b9050611e506040830188611c4e565b8181036060830152611e628187611dcb565b9050611e716080830186611c4e565b81810360a0830152611e838185611dcb565b9050611e9260c0830184611e04565b98975050505050505050565b611ea781611c44565b8114611eb257600080fd5b50565b600081359050611ec481611e9e565b92915050565b600060208284031215611ee057611edf6119db565b5b6000611eee84828501611eb5565b91505092915050565b6000602082019050611f0c6000830184611e04565b92915050565b60008060408385031215611f2957611f286119db565b5b6000611f3785828601611a2e565b9250506020611f4885828601611eb5565b9150509250929050565b600060e082019050611f67600083018a611c4e565b8181036020830152611f798189611dcb565b90508181036040830152611f8d8188611dcb565b90508181036060830152611fa18187611dcb565b9050611fb06080830186611c4e565b611fbd60a0830185611e04565b81810360c0830152611fcf8184611dcb565b905098975050505050505050565b60008115159050919050565b611ff281611fdd565b82525050565b600060e08201905061200d600083018a611c4e565b818103602083015261201f8189611dcb565b905081810360408301526120338188611dcb565b90506120426060830187611e04565b81810360808301526120548186611dcb565b905061206360a0830185611c4e565b61207060c0830184611fe9565b98975050505050505050565b600061010082019050612092600083018b611c4e565b81810360208301526120a4818a611dcb565b905081810360408301526120b88189611dcb565b90506120c76060830188611e04565b6120d46080830187611c4e565b6120e160a0830186611fe9565b6120ee60c0830185611c4e565b81810360e08301526121008184611dcb565b90509998505050505050505050565b600080600080600060a0868803121561212b5761212a6119db565b5b600061213988828901611a2e565b955050602086013567ffffffffffffffff81111561215a576121596119e0565b5b61216688828901611b5b565b945050604086013567ffffffffffffffff811115612187576121866119e0565b5b61219388828901611b5b565b935050606086013567ffffffffffffffff8111156121b4576121b36119e0565b5b6121c088828901611b5b565b925050608086013567ffffffffffffffff8111156121e1576121e06119e0565b5b6121ed88828901611b5b565b9150509295509295909350565b7f596f752068617665206e6f20726967687420746f2070726f766964652061757460008201527f686f72697a6174696f6e20666f7220766f746500000000000000000000000000602082015250565b6000612256603383611d90565b9150612261826121fa565b604082019050919050565b6000602082019050818103600083015261228581612249565b9050919050565b7f4e487b7100000000000000000000000000000000000000000000000000000000600052601160045260246000fd5b60006122c682611c44565b91507fffffffffffffffffffffffffffffffffffffffffffffffffffffffffffffffff82036122f8576122f761228c565b5b600182019050919050565b7f4e487b7100000000000000000000000000000000000000000000000000000000600052602260045260246000fd5b6000600282049050600182168061234a57607f821691505b60208210810361235d5761235c612303565b5b50919050565b60008190508160005260206000209050919050565b60006020601f8301049050919050565b600082821b905092915050565b6000600883026123c57fffffffffffffffffffffffffffffffffffffffffffffffffffffffffffffffff82612388565b6123cf8683612388565b95508019841693508086168417925050509392505050565b6000819050919050565b600061240c61240761240284611c44565b6123e7565b611c44565b9050919050565b6000819050919050565b612426836123f1565b61243a61243282612413565b848454612395565b825550505050565b600090565b61244f612442565b61245a81848461241d565b505050565b5b8181101561247e57612473600082612447565b600181019050612460565b5050565b601f8211156124c35761249481612363565b61249d84612378565b810160208510156124ac578190505b6124c06124b885612378565b83018261245f565b50505b505050565b600082821c905092915050565b60006124e6600019846008026124c8565b1980831691505092915050565b60006124ff83836124d5565b9150826002028217905092915050565b61251882611d85565b67ffffffffffffffff81111561253157612530611a5e565b5b61253b8254612332565b612546828285612482565b600060209050601f8311600181146125795760008415612567578287015190505b61257185826124f3565b8655506125d9565b601f19841661258786612363565b60005b828110156125af5784890151825560018201915060208501945060208101905061258a565b868310156125cc57848901516125c8601f8916826124d5565b8355505b6001600288020188555050505b505050505050565b600081546125ee81612332565b6125f88186611d90565b9450600182166000811461261357600181146126295761265c565b60ff19831686528115156020028601935061265c565b61263285612363565b60005b8381101561265457815481890152600182019150602081019050612635565b808801955050505b50505092915050565b600060e082019050818103600083015261267f818a611dcb565b905081810360208301526126938189611dcb565b90506126a26040830188611e04565b6126af6060830187611c4e565b6126bc6080830186611fe9565b6126c960a0830185611c4e565b81810360c08301526126db81846125e1565b905098975050505050505050565b7f596f75206861766520616c726561647920766f74656400000000000000000000600082015250565b600061271f601683611d90565b915061272a826126e9565b602082019050919050565b6000602082019050818103600083015261274e81612712565b9050919050565b7f596f752068617665206e6f20726967687420746f20766f746500000000000000600082015250565b600061278b601983611d90565b915061279682612755565b602082019050919050565b600060208201905081810360008301526127ba8161277e565b9050919050565b60006127cc82611c44565b91506127d783611c44565b92508282019050808211156127ef576127ee61228c565b5b92915050565b7f596f752068617665206e6f20617a7574686f72697a6174696f6e20746f20736560008201527f742043616e646964617465000000000000000000000000000000000000000000602082015250565b6000612851602b83611d90565b915061285c826127f5565b604082019050919050565b6000602082019050818103600083015261288081612844565b9050919050565b600060c08201905081810360008301526128a18189611dcb565b905081810360208301526128b58188611dcb565b905081810360408301526128c98187611dcb565b90506128d86060830186611c4e565b6128e56080830185611e04565b81810360a08301526128f781846125e1565b905097965050505050505056fea26469706673582212209bf418da902c2d080a48f40912c6a102a34033dfc8c76263b7600ecbcc3d801064736f6c63430008180033",
  "linkReferences": {},
  "deployedLinkReferences": {}
}